:1000000002000375815F7590FF75A0FFD2B0D2B179
:100010001201F4754400120156120285B4FF030266
:100020000019C0E0120319D0E0F530E5447008E58E
:100030003012018102001930010DC201E530B40F08
:1000400006120176020019E544B40218E530B40442
:100050000874E812020D020019B4060874E91202CD
:100060000D020019E530B40E081201A9D2010200F8
:1000700019B40A00504EE544B40207E530B402005A
:10008000502ABF02030200193003031201B1E544F4
:10009000B40207E5301203308005E53012035D201D
:1000A000000DD204E53012020D020019020019E51C
:1000B00041B404028003B40805E53012020D1202B7
:1000C00025020019E530B40F0630035C020019B4B4
:1000D0000E004003020147E544B4030AE530B40AC8
:1000E0000280030201471201CF300003020019E52C
:1000F00044B4010EE530C39409FEEE24BF12020D94
:100100008048B4020EE530B40D127E0874C71202A6
:100110000D803E7E0974C812020D8035C39405FE21
:10012000EE24BF12020D802274E712020D2000118E
:100130007541001203C320000812022FD2030200EF
:10014000191202250200190200197F01C2040200DF
:10015000197F020200197A007B007C007D007E007E
:100160007F00754100754500754600C200C201C29E
:1001700002C203C2042275440012015674E5020251
:100180000DB401087544017530E18014B40208759E
:1001900044027530E28009B4030E7544037530E300
:1001A000120156E53002020D2212015674E40202D9
:1001B0000D0201A93003177C007D007E007F0075D1
:1001C0004100754600C200C20374E612020D2220EF
:1001D0000021200317BF0206EEB408088015BF01F6
:1001E0001230040F1203C3200006D2031201B422FE
:1001F0001202252253890F43892053877F758DFD75
:10020000758BFD759850C299C298D28E22F547C25F
:1002100099F5993099FDC2993098FDE599C298B445
:1002200006F6E5472274D212020DE54102020DE501
:1002300044B4020974D112020DEB02020DEEB404B3
:100240002EE5354536602874D312020D7400300255
:10025000010412020DEA12020DEB12020DE5351235
:10026000020DE53612020DEC12020DED02020D74C4
:10027000D012020D74003002010412020DEA1202C3
:100280000DEB02020D7590F0E59054F0B4F003749C
:10029000FF221203277590F0E59054F0B4F0037438
:1002A000FF227590FEE59030E44230E54230E642B0
:1002B00030E7547590FDE59030E43A30E53A30E6A9
:1002C0003A30E7467590FBE59030E43230E5323065
:1002D000E63230E7387590F7E59030E43630E509DE
:1002E00030E63330E72A74FF22740022740122744E
:1002F00002227403227404227405227406227407F5
:1003000022740822740922740A22740B22740C22AB
:10031000740D22740E22740F227590F0E59054F043
:10032000B4F0F612032722781479FFD9FED8FA2206
:10033000F530BF0011E545B40800501BEB234530F4
:10034000FB7A00054522E546B40800500AED234536
:1003500030FD7C00054622754108020559F530BF85
:10036000001C8A318B3212039A4052E5322530F557
:1003700032E53134004046F531AA31AB32228C31BE
:100380008D3212039A4036E5322530F532E53134AC
:1003900000402AF531AC31AD3222E53275F00AA4C5
:1003A000F53285F036E53175F00AA4F531E5F070E7
:1003B0000AE5312536F5314002C322D322754104C6
:1003C000020559EE600EB40A0050091475F003A43A
:1003D0009003D573220203F002041D02044C0204B0
:1003E000BD02053502053B02054102054702052B0A
:1003F00020020CEB2DFBEA3CFA500302054D22ECE7
:10040000C39A40117005EDC39B400AC3ED9BFBEC02
:100410009AFAC20222C3EB9DFBEA9CFA2220022038
:10042000EAC39C40117005EBC39D400AC3EB9DFBE2
:10043000EA9CFAC20222C3ED9BFBEC9AFAD202229A
:10044000EB2DFBEA3CFA500302054D228B378A382C
:10045000753900753A008D3F8C40753B00753C0046
:10046000753D00753E007810E53F54016019C3E505
:100470003B2537F53BE53C3538F53CE53D3539F571
:100480003DE53E353AF53EC3E53733F537E53833DC
:10049000F538E53933F539E53A33F53AC3E5401334
:1004A000F540E53F13F53FD8BFE53D453E6003020B
:1004B000054DAA3CAB3BEA4B7002C20222EC4D70E8
:1004C000030205538A318B3275330075340075355C
:1004D000007536007810C3E53233F532E53133F577
:1004E00031E53633F536E53533F5357542005003E1
:1004F000754201C3E53433F534E53333F533E54272
:10050000700EE535C39C40167006E536C39D400E5F
:10051000C3E5369DF536E5359CF535433401D8B64F
:10052000AA33AB34EA4B7002C20222EAFCEBFDC2F2
:100530000212044C22EB5DFB7A0022EB4DFB7A00A9
:1005400022EB6DFB7A0022EBF4FB7A00227541016D
:0C055000020559754103020559D2002232
:00000001FF
