:1000000002000375815F7590FF75A0FFD2B0D2B179
:100010001201B2754400120122120211B4FF030250
:100020000019C0E01202A5D0E0F530E5447008E503
:100030003012014B02001930010DC201E530B40F3E
:1000400006120140020019E530B40E08120173D205
:1000500001020019B40A005039BF0203020019302E
:10006000030312017BE544B4020CE530B4020050F6
:10007000151202BC8005E5301202E920000EE530C1
:100080001201CB0200197541071204E51201E302C7
:100090000019E530B40F0630035C020019B40E00FD
:1000A0004003020115E544B4030AE530B40A0280B6
:1000B00003020115120199300003020019E544B44E
:1000C000010EE530C39409FEEE24BF1201CB804837
:1000D000B4020EE530B40D127E0874C71201CB8055
:1000E0003C7E0974C81201CB8033C39405FEEE2414
:1000F000BF1201CB802274E71201CB2000117541A1
:100100000012034F2000081201EDD2030200191261
:1001100001E30200190200197F010200197F0202A7
:1001200000197A007B007C007D007E007F00754115
:1001300000754500754600C200C201C202C203221A
:1001400075440012012274E50201CBB40108754424
:10015000017530E18014B402087544027530E28004
:1001600009B4030E7544037530E3120122E5300231
:1001700001CB2212012274E40201CB02017330038D
:10018000177C007D007E007F00754100754600C22F
:1001900000C20374E61201CB2220001520030BBF1E
:1001A000010F12034F200006D20312017E2212011A
:1001B000E32253890F43892053877F758DFD758B0B
:1001C000FD759850C299C298D28E22F547C299F512
:1001D000993099FDC2993098FDE599C298B406F618
:1001E000E5472274D21201CBE5410201CBE544B4CC
:1001F000020974D11201CBEB0201CB74D01201CBF6
:100200007400300201041201CBEA1201CBEB0201AF
:10021000CB7590F0E59054F0B4F00374FF22120215
:10022000B37590F0E59054F0B4F00374FF2275902C
:10023000FEE59030E44230E54230E64230E7547566
:1002400090FDE59030E43A30E53A30E63A30E74662
:100250007590FBE59030E43230E53230E63230E73D
:10026000387590F7E59030E43630E50930E6333004
:10027000E72A74FF2274002274012274022274039C
:100280002274042274052274062274072274082240
:10029000740922740A22740B22740C22740D2274C5
:1002A0000E22740F227590F0E59054F0B4F0F6121F
:1002B00002B322781479FFD9FED8FA22F530BF00B4
:1002C00011E545B40800501BEB234530FB7A0005CF
:1002D0004522E546B40800500AED234530FD7C0078
:1002E0000546227541080204E5F530BF001C8A313D
:1002F0008B321203264052E5322530F532E5313497
:10030000004046F531AA31AB32228C318D321203D6
:10031000264036E5322530F532E5313400402AF505
:1003200031AC31AD3222E53275F00AA4F53285F0F8
:1003300036E53175F00AA4F531E5F0700AE53125AE
:1003400036F5314002C322D3227541040204E5EEA2
:10035000600EB40A0050091475F003A49003617391
:100360002202037C0203A90203D80204490204C149
:100370000204C70204CD0204D30204B720020CEB2E
:100380002DFBEA3CFA50030204D922ECC39A401137
:100390007005EDC39B400AC3ED9BFBEC9AFAC202C9
:1003A00022C3EB9DFBEA9CFA22200220EAC39C4078
:1003B000117005EBC39D400AC3EB9DFBEA9CFAC29A
:1003C0000222C3ED9BFBEC9AFAD20222EB2DFBEA50
:1003D0003CFA50030204D9228B378A3875390075EC
:1003E0003A008D3F8C40753B00753C00753D0075B3
:1003F0003E007810E53F54016019C3E53B2537F511
:100400003BE53C3538F53CE53D3539F53DE53E35D8
:100410003AF53EC3E53733F537E53833F538E53996
:1004200033F539E53A33F53AC3E54013F540E53F96
:1004300013F53FD8BFE53D453E60030204D9AA3C11
:10044000AB3BEA4B7002C20222EC4D70030204DFA8
:100450008A318B327533007534007535007536007E
:100460007810C3E53233F532E53133F531E5363313
:10047000F536E53533F5357542005003754201C355
:10048000E53433F534E53333F533E542700EE535C5
:10049000C39C40167006E536C39D400EC3E5369DED
:1004A000F536E5359CF535433401D8B6AA33AB347F
:1004B000EA4B7002C20222EAFCEBFDC2021203D830
:1004C00022EB5DFB7A0022EB4DFB7A0022EB6DFB09
:1004D0007A0022EBF4FB7A00227541010204E575F3
:0804E00041030204E5D20022F1
:00000001FF
