:1000000002000375815F759000D2B0D2B175A00077
:10001000753100C200C20112018C12055C1204E0AD
:100020001205071201BB1201A5F530B40A00501DDC
:100030002430F530E531B4020AC201E53012025D28
:10004000020026C201E530120522020026E530B486
:10005000E0061201BB020026B4E10975310112016C
:10006000F9020026B4E2097531021201F9020026F4
:10007000B4E3097531031201F9020026B4E4061253
:1000800001F9020026B4E5061201D7020026B4E603
:100090000612022C020026B4E71DC201743DF530A1
:1000A000E531B40207E53012025D8005E530120546
:1000B00022120557020026B4E80612029102002619
:1000C000B4E9061202A4020026B4D008C20112024A
:1000D000F8020026B4D10DC2011201A5F5331203B6
:1000E00068020026B4D20BC2011201A51203380225
:1000F0000026B4D308C20112030E020026E530B474
:10010000C0028026B4C1028021B4C202801CB4C3E4
:10011000028017B4C4028012B4C502800DB4C602B6
:100120008008B4C7028003B4C85FE530B4C812C207
:1001300001745E1205227432120522120557020064
:100140002685303AC394C090059A93F53030011853
:10015000E531B40207E530120280801F74101205E9
:100160001EE5301205228013D201E531B40207E505
:100170003012025D8005E530120522E53AB4C7066B
:1001800012055702002612055202002653890F431A
:10019000892053877F758DFD758BFD759850C299A9
:1001A000C298D28E223098FDE599C298F530C29956
:1001B0007599063099FDC299E53022753100120516
:1001C00057740112051E74C512051E9005A2120572
:1001D000331205810201D7753100C2011202561295
:1001E0000557740112051E9005AC12053374C01238
:1001F000051E9005BC12053322E53160DAC20112FA
:100200000256740112051E74C012051EE531B401B8
:10021000059005CD800BB402059005D880039005AC
:10022000E8120533748012051E020552C2017401E2
:1002300012051EE531B40215120256744112025D18
:10024000744E12025D745312025D0205529005A8AD
:1002500012053302055275520075530022F530E540
:1002600052B4120122784028F8E530F60552E552E2
:10027000C3941040066004F553803C7553008037EA
:10028000F530E552600A142440F8E530F61202B762
:1002900022E531B40220E552C3941040196017756D
:1002A00053008013E531B4020DE552C394104006AB
:1002B0006004F553800122748012051E7840E553D6
:1002C00028F8E552C39553F9B4100280044002792E
:1002D000108930E96007E612052208D9F97410C3C5
:1002E0009530F9E960077420120522D9F9E530B498
:1002F000100114248002051E1201A5C2006002D262
:10030000001201A5F5321201A5F533020395120181
:10031000A5C2006002D2001201A5F5321201A5F5B6
:10032000331201A5F53B1201A5F53C1201A5F53DDF
:100330001201A5F53E0203F8F53012055712053EED
:10034000E530B401059005F5801BB4030590060463
:100350008013B40405900613800BB408059006249E
:10036000800390063402053312055774C012051E2F
:1003700078087420120522D8F985333A7808E53ACE
:1003800054806004743180027430120522E53A23EF
:10039000F53AD8EA22120557853234853335E534EB
:1003A0004535701474C012051E780F742012052292
:1003B000D8F974301205222278001204A32430C028
:1003C000E008E534453570F28839E830000104F57D
:1003D000F07410C395F0F974C012051EE96007743B
:1003E00020120522D9F9300005742D120522A839F2
:1003F000D0E0120522D8F922120557853234853310
:1004000035120469F53F853B34853C351204692576
:100410003FF53F853D34853E35120469253F240272
:10042000F53F300002053F7410C3953FF874C012C9
:10043000051EE860077420120522D8F93000057403
:100440002D12052285323485333512048074001252
:100450000522853B34853C35120480740012052248
:10046000853D34853E35020480E53445357003749E
:10047000012278001204A308E534453570F6E8221D
:10048000E53445357005743002052278001204A366
:100490002430C0E008E534453570F2D0E012052282
:1004A000D8F9227536007537007538007910C3E524
:1004B0003533F535E53433F534E53833F538C3E510
:1004C0003733F537E53633F536E538C3940A40055A
:1004D000F538433701D9D7853634853735E53822A5
:1004E000743012051E120570743012051E7430121D
:1004F000051E743812051E740C12051E74061205B2
:100500001E740112051E22744012051E90063A78D0
:1005100008E493120522A3D8F8748002051EC2A035
:100520008002D2A0F590C2A1D2A212056DC2A21281
:10053000057022E4936006120522A380F62274C09F
:1005400012051E78107420120522D8F974C0120505
:100550001E22740F02051E740C02051EC000C0018D
:10056000785079FFD9FED8FAD001D00022000022BD
:10057000C000C001780479FFD9FED8FAD001D000BC
:1005800022C000C001C0027A0878FF79FFD9FED8E6
:10059000FADAF6D002D001D000222B2D2A2F267CA9
:1005A000587E524541445900414E53004D4F4445F9
:1005B000532053454C454354494F4E00313A415224
:1005C00020323A4C4F4720333A4144560041524979
:1005D00054484D45544943004C4F4749433A203015
:1005E0002F31204F4E4C5900414456414E43452037
:1005F0004D4F4445004552524F523A4F5645524690
:100600004C4F57004552524F523A444956205A4592
:10061000524F004552524F523A494E505554205372
:10062000495A45004552524F523A4D4158203820C0
:10063000424954004552524F520000000001011F30
:020640000000B8
:00000001FF
