:1000000002000375815F759000D2B0D2B175A00077
:10001000753100C200C2011201951205651204E992
:100020001205101201C41201AEF530B40A00501DC1
:100030002430F530E531B4020AC201E5301202661F
:10004000020026C201E53012052B020026E530B47D
:10005000E0061201C4020026B4E109753101120262
:1000600002020026B4E209753102120202020026E1
:10007000B4E309753103120202020026B4E4061249
:100080000202020026B4E5061201E0020026B4E6F0
:1000900006120235020026B4E71DC201743DF53098
:1000A000E531B40207E5301202668005E53012053D
:1000B0002B120560020026B4E80612029A020026FE
:1000C000B4E9061202AD020026B4D008C201120340
:1000D00001020026B4D10DC2011201AEF5331203A4
:1000E00071020026B4D20BC2011201AE120341020A
:1000F0000026B4D308C201120317020026E530B46B
:10010000C0028026B4C1028021B4C202801CB4C3E4
:10011000028017B4C4028012B4C502800DB4C602B6
:100120008008B4C7028003B4C868E530B4C812C2FE
:1001300001745E12052B743212052B120560020049
:100140002685303AC394C09005A393F530E53AB4C0
:10015000C704C201801D300118E531B40207E53043
:10016000120289801F7410120527E53012052B80BA
:1001700013D201E531B40207E5301202668005E5CD
:100180003012052BE53AB4C70612056002002612AC
:10019000055B02002653890F43892053877F758DA5
:1001A000FD758BFD759850C299C298D28E223098F9
:1001B000FDE599C298F530C2997599063099FDC24E
:1001C00099E530227531001205607401120527741B
:1001D000C51205279005AB12053C12058A0201E005
:1001E000753100C20112025F120560740112052709
:1001F0009005B512053C74C01205279005C512057F
:100200003C22E53160DAC20112025F740112052757
:1002100074C0120527E531B401059005D6800BB4F2
:1002200002059005E180039005F112053C748012EF
:10023000052702055BC2017401120527E531B402EE
:100240001512025F7441120266744E1202667453F4
:1002500012026602055B9005B112053C02055B7552
:10026000520075530022F530E552B4120122784055
:1002700028F8E530F60552E552C3941040066004B4
:10028000F553803C7553008037F530E552600A1411
:100290002440F8E530F61202C022E531B40220E530
:1002A00052C39410401960177553008013E531B4A0
:1002B000020DE552C3941040066004F553800122FC
:1002C00074801205277840E55328F8E552C395530A
:1002D000F9B410028004400279108930E96007E621
:1002E00012052B08D9F97410C39530F9E960077429
:1002F0002012052BD9F9E530B41001142480020531
:10030000271201AEC2006002D2001201AEF5321215
:1003100001AEF53302039E1201AEC2006002D200AC
:100320001201AEF5321201AEF5331201AEF53B12F9
:1003300001AEF53C1201AEF53D1201AEF53E0204F0
:1003400001F530120560120547E530B4010590054E
:10035000FE801BB4030590060D8013B404059006BF
:100360001C800BB4080590062D800390063D020505
:100370003C12056074C01205277808742012052B02
:10038000D8F985333A7808E53A54806004743180AE
:1003900002743012052BE53A23F53AD8EA22120509
:1003A00060853234853335E5344535701474C012B8
:1003B0000527780F742012052BD8F9743012052BFD
:1003C0002278001204AC2430C0E008E534453570D2
:1003D000F28839E830000104F5F07410C395F0F9A3
:1003E00074C0120527E96007742012052BD9F93073
:1003F0000005742D12052BA839D0E012052BD8F971
:1004000022120560853234853335120472F53F853A
:100410003B34853C35120472253FF53F853D3485DC
:100420003E35120472253F2402F53F300002053F9D
:100430007410C3953FF874C0120527E86007742054
:1004400012052BD8F9300005742D12052B85323496
:10045000853335120489740012052B853B34853CA5
:1004600035120489740012052B853D34853E350212
:100470000489E5344535700374012278001204AC18
:1004800008E534453570F6E822E5344535700574E5
:100490003002052B78001204AC2430C0E008E534AB
:1004A000453570F2D0E012052BD8F922753600756B
:1004B00037007538007910C3E53533F535E5343349
:1004C000F534E53833F538C3E53733F537E53633FA
:1004D000F536E538C3940A4005F538433701D9D7D6
:1004E000853634853735E5382274301205271205F4
:1004F00079743012052774301205277438120527D5
:10050000740C1205277406120527740112052722A0
:1005100074401205279006437808E49312052BA334
:10052000D8F87480020527C2A08002D2A0F590C23C
:10053000A1D2A2120576C2A212057922E493600626
:1005400012052BA380F62274C012052778107420A0
:1005500012052BD8F974C012052722740F02052743
:10056000740C020527C000C001785079FFD9FED86D
:10057000FAD001D00022000022C000C00178047926
:10058000FFD9FED8FAD001D00022C000C001C002BD
:100590007A0878FF79FFD9FED8FADAF6D002D001CE
:1005A000D000222B2D2A2F267C587E5245414459BB
:1005B00000414E53004D4F4445532053454C454355
:1005C00054494F4E00313A415220323A4C4F472065
:1005D000333A4144560041524954484D45544943E9
:1005E000004C4F4749433A20302F31204F4E4C5951
:1005F00000414456414E4345204D4F44450045522D
:10060000524F523A4F564552464C4F570045525260
:100610004F523A444956205A45524F004552524F84
:10062000523A494E5055542053495A45004552526A
:100630004F523A4D415820382042495400455252B9
:0B0640004F520000000001011F0000ED
:00000001FF
