:1000000002000375815F759000D2B0D2B175A00077
:10001000753100C20012015D12051E1204A2120405
:10002000C912018C120176F530B40A00501924303F
:10003000F530E531B40208E530120228020024E56B
:10004000301204E4020024E530B4E00612018C0210
:100050000024B4E1097531011201C8020024B4E2A0
:10006000097531021201C8020024B4E30975310395
:100070001201C8020024B4E4061201C8020024B42C
:10008000E5061201A8020024B4E6061201F90200F6
:1000900024B4E71B743DF530E531B40207E53012B6
:1000A00002288005E5301204E4120519020024B488
:1000B000E80612024B020024B4E90612025E0200B6
:1000C00024B4D0061202B2020024B4D10B1201767D
:1000D000F53312032A020024B4D209120176120267
:1000E000F2020024B4D3061202C8020024E530B4A0
:1000F000C0028026B4C1028021B4C202801CB4C3F5
:10010000028017B4C4028012B4C502800DB4C602C6
:100110008008B4C7028003B4C840E530B4C8107486
:100120005E1204E474321204E412051902002485FC
:10013000303AC394C090055C93F530E531B40207C2
:10014000E5301202288005E5301204E4E53AB4C730
:100150000612051902002412051402002453890F07
:1001600043892053877F758DFD758BFD759850C22F
:1001700099C298D28E223098FDE599C298F530C286
:10018000997599063099FDC299E5302275310012B2
:10019000051974011204E074C51204E0900564129C
:1001A00004F51205430201A875310012022112055F
:1001B0001974011204E090056E1204F574C0120463
:1001C000E090057E1204F522E53160DC1202217414
:1001D000011204E074C01204E0E531B40105900599
:1001E0008F800BB4020590059A80039005AA120433
:1001F000F574801204E002051474011204E0E53184
:10020000B402151202217441120228744E120228FF
:10021000745312022802051490056A1204F50205AF
:100220001475520075530022F530E552B4120122C4
:10023000784028F8E530F60552E552C394104006A0
:100240006004F553802B7553008026E531B40220FD
:10025000E552C39410401960177553008013E531BF
:10026000B4020DE552C3941040066004F5538001BA
:100270002274801204E07840E55328F8E552C395D3
:1002800053F9B410028004400279108930E9600704
:10029000E61204E408D9F97410C39530F9E960074F
:1002A00074201204E4D9F9E530B41001142480025A
:1002B00004E0120176C2006002D200120176F5322B
:1002C000120176F533020357120176C2006002D2A2
:1002D00000120176F532120176F533120176F53B04
:1002E000120176F53C120176F53D120176F53E02DB
:1002F00003BAF530120519120500E530B401059076
:1003000005B78023B403059005C6801BB40405908F
:1003100005D58013B407059005E6800BB408059059
:1003200005F480039006040204F512051974C01246
:1003300004E0780874201204E4D8F985333A780888
:10034000E53A548060047431800274301204E4E5AC
:100350003A23F53AD8EA2212051985323485333525
:10036000E5344535701474C01204E0780F7420121F
:1003700004E4D8F974301204E422780012046524ED
:1003800030C0E008E534453570F28839E8300001C6
:1003900004F5F07410C395F0F974C01204E0E9603C
:1003A0000774201204E4D9F9300005742D1204E416
:1003B000A839D0E01204E4D8F922120519853234A4
:1003C00085333512042BF53F853B34853C351204CB
:1003D0002B253FF53F853D34853E3512042B253FC7
:1003E0002402F53F300002053F7410C3953FF874B6
:1003F000C01204E0E8600774201204E4D8F9300069
:1004000005742D1204E485323485333512044274A8
:10041000001204E4853B34853C351204427400121A
:1004200004E4853D34853E35020442E534453570AB
:1004300003740122780012046508E534453570F62E
:10044000E822E5344535700574300204E478001282
:1004500004652430C0E008E534453570F2D0E01280
:1004600004E4D8F922753600753700753800791024
:10047000C3E53533F535E53433F534E53833F53850
:10048000C3E53733F537E53633F536E538C3940A37
:100490004005F538433701D9D7853634853735E5FA
:1004A000382274301204E012053274301204E07401
:1004B000301204E074381204E0740C1204E0740684
:1004C0001204E074011204E02274401204E0900669
:1004D0000A7808E4931204E4A3D8F874800204E0D4
:1004E000C2A08002D2A0F590C2A1D2A212052FC252
:1004F000A212053222E49360061204E4A380F622DD
:1005000074C01204E0781074201204E4D8F974C0A6
:100510001204E022740F0204E0740C0204E0C00034
:10052000C001785079FFD9FED8FAD001D00022005E
:100530000022C000C001780479FFD9FED8FAD001AA
:10054000D00022C000C001C0027A0878FF79FFD92C
:10055000FED8FADAF6D002D001D000222B2D2A2FB5
:10056000267C587E524541445900414E53004D4F20
:100570004445532053454C454354494F4E00313A6E
:10058000415220323A4C4F4720333A4144560041C1
:10059000524954484D45544943004C4F4749433A0A
:1005A00020302F31204F4E4C5900414456414E438C
:1005B00045204D4F4445004552524F523A4F564503
:1005C00052464C4F57004552524F523A44495620DA
:1005D0005A45524F004552524F523A494E50555487
:1005E0002053495A45004552524F523A55534520DF
:1005F000302F31004552524F523A4D415820382049
:10060000424954004552524F520000000001011F60
:020610000000E8
:00000001FF
