:1000000002000375815F759000D2B0D2B175A00077
:10001000753100755400755580C200C201C202C21C
:10002000031201BD1205D11205511205781201EC1F
:1000300020980E3001FA12060F2098F412024D801B
:10004000EF1201D6F530B40A00501F2430F530E528
:1000500031B4020AC203E5301202CC020030C203FE
:10006000E5301205930555020030E530B4E0061284
:1000700001EC020030B4E10975310112022C0200DA
:1000800030B4E20975310212022C020030B4E309E7
:1000900075310312022C020030B4E40612022C0265
:1000A0000030B4E506120208020030B4E60612027F
:1000B00098020030B4E71FC203743DF530E531B457
:1000C0000207E5301202CC8007E530120593055592
:1000D0001205CA020030B4E806120300020030B470
:1000E000E906120313020030B4D00AC201C203129F
:1000F0000369020030B4D10FC201C2031201D6F568
:10010000331203D9020030B4D20DC201C20312016E
:10011000D61203A9020030B4D30AC201C2031203EB
:100120007F020030E530B4C0028026B4C1028021D5
:10013000B4C202801CB4C3028017B4C4028012B4DB
:10014000C502800DB4C6028008B4C7028003B4C8DB
:1001500069E530B4C816C203745E12059374321296
:100160000593055505551205CA02003085303AC37E
:1001700094C090062893F53030031CE531B4020793
:10018000E5301202EF80251555E55512058FE53053
:1001900012059305558015D203E531B40207E53009
:1001A0001202CC8007E5301205930555E53AB4C735
:1001B000061205CA0200301205C302003053890F2F
:1001C00043892053877F758DFD758BFD759850C2CF
:1001D00099C298D28E223098FDE599C298F530C226
:1001E000997599063099FDC299E530227531001252
:1001F00005CA740112058F74C512058F900630125E
:1002000005A41205F6020208753100C201C20312EC
:1002100002C51205CA740112058F90063A1205A490
:1002200074C012058F90064A1205A422E53160D8E9
:100230001202C5740112058F755400755580C203F2
:10024000D20112024D748012058F0205C3740C1284
:10025000058FE531B4010590067E800BB402059050
:10026000069E80039006BEE5822554F582E5833420
:1002700000F58374C012058F7810E493120593A3E0
:10028000D8F81554E554540FF554E55512058F3040
:100290000205740F12058F22C203740112058FE547
:1002A00031B402151202C574411202CC744E12020E
:1002B000CC74531202CC0205C39006361205A47505
:1002C00055830205C375520075530022F530E5527F
:1002D000B4120122784028F8E530F60552E552C301
:1002E000941040066004F553803C7553008037F548
:1002F00030E552600A142440F8E530F61203262255
:10030000E531B40220E552C39410401960177553CB
:10031000008013E531B4020DE552C394104006602D
:1003200004F553800122748012058F7840E553282C
:10033000F8E552C39553F9B41002800440027910D5
:100340008930E96007E612059308D9F97410C3955E
:1003500030F9E960077420120593D9F9E530B4103B
:1003600001142480F55502058F1201D6C2006002E7
:10037000D2001201D6F5321201D6F533020406126C
:1003800001D6C2006002D2001201D6F5321201D6A7
:10039000F5331201D6F53B1201D6F53C1201D6F524
:1003A0003D1201D6F53E020469F5301205CA120568
:1003B000AFE530B401059006DE801BB4030590065E
:1003C000ED8013B404059006FC800BB4080590077B
:1003D0000D800390071D0205A41205CA74C0120502
:1003E0008F78087420120593D8F985333A7808E598
:1003F0003A54806004743180027430120593E53AF7
:1004000023F53AD8EA221205CA853234853335E518
:10041000344535701474C012058F780F742012059E
:1004200093D8F97430120593227800120514243001
:10043000C0E008E534453570F28839E83000010441
:10044000F5F07410C395F0F974C012058FE96007D8
:100450007420120593D9F9300005742D120593A864
:1004600039D0E0120593D8F9221205CA85323485B5
:1004700033351204DAF53F853B34853C351204DA16
:10048000253FF53F853D34853E351204DA253F246E
:1004900002F53F300002053F7410C3953FF874C069
:1004A00012058FE860077420120593D8F930000513
:1004B000742D1205938532348533351204F174009E
:1004C000120593853B34853C351204F17400120506
:1004D00093853D34853E350204F1E534453570039E
:1004E000740122780012051408E534453570F6E8E9
:1004F00022E5344535700574300205937800120505
:10050000142430C0E008E534453570F2D0E012051F
:1005100093D8F9227536007537007538007910C305
:10052000E53533F535E53433F534E53833F538C39F
:10053000E53733F537E53633F536E538C3940A4009
:1005400005F538433701D9D7853634853735E53851
:1005500022743012058F1205E5743012058F743045
:1005600012058F743812058F740C12058F740612E1
:10057000058F740112058F22744012058F90072396
:100580007808E493120593A3D8F8748002058FC20B
:10059000A08002D2A0F590C2A1D2A21205E2C2A20E
:1005A0001205E522E4936006120593A380F62274F7
:1005B000C012058F78107420120593D8F974C012F8
:1005C000058F22D202740F02058FC202740C02053D
:1005D0008FC000C001785079FFD9FED8FAD001D081
:1005E0000022000022C000C001780479FFD9FED8A3
:1005F000FAD001D00022C000C001C0027A0878FF02
:1006000079FFD9FED8FADAF6D002D001D00022C0A4
:1006100000C001C0027A0278FF79FFD9FED8FADA69
:10062000F6D002D001D000222B2D2A2F267C587E16
:10063000524541445900414E53004D4F44455320CB
:1006400053454C454354494F4E00313A41522032B4
:100650003A4C4F4720333A4144560041524954489E
:100660004D455449430038626974204C4F47494313
:1006700000414456414E4345204D4F444500202003
:100680002041524954484D455449432020202020C0
:100690002041524954484D455449432020202020B0
:1006A0002038626974204C4F474943202020202085
:1006B0002038626974204C4F474943202020202075
:1006C000414456414E4345204D4F44452020202073
:1006D000414456414E4345204D4F4445202045520C
:1006E000524F523A4F564552464C4F570045525280
:1006F0004F523A444956205A45524F004552524FA4
:10070000523A494E5055542053495A450045525289
:100710004F523A4D415820382042495400455252D8
:0B0720004F520000000001011F00000C
:00000001FF
