:1000000002000375815F7590FF75B000C2A0C2A1A8
:10001000C2A212026112020612014612029FB4FF2E
:100020000302001BC0E0120333D0E0F530E544705A
:1000300008E53012017F02001B30010DC201E530DE
:10004000B40F0612016202001BE530B40E08120163
:10005000C3D20102001BB40A00503BBF02030200DE
:100060001B3003031201C9E544B4020CE530B402AD
:1000700000501712034A8005E53012037720001064
:10008000E530243012023102001B7541071205735E
:1000900012058902001BE530B40F06300369020027
:1000A0001BB40E005075E544B40305E530B40A6B8B
:1000B0001201ED30000302001BE544B40115E530E8
:1000C000C39409FEE530C3940A900681931202316D
:1000D00002011EB4020FE530B40D197E08747E12C1
:1000E00002310201237E09745E120231743212025F
:1000F00031020123C39405FEE530C3940A900685BE
:100100009312023102011E743D1202312000067565
:1001100041001203DD12057602001B02001B7F0165
:1001200002001B7F0202001B7A007B007C007D0026
:100130007E007F00754100754500754600C200C213
:1001400001C202C203227544001201287401120286
:100150002D74C512022D90068812024212028602E8
:100160000162754400120128740112022D9006925A
:1001700012024274C012022D9006A112024222B451
:100180000105754401800EB402057544028006B471
:10019000030975440312012802019C227401120212
:1001A0002D74C012022DE544B401059006B2800BF7
:1001B000B402059006BD80039006CD120242748001
:1001C00002022D12012802019C0201C330031D7C92
:1001D000007D007E007F00754100754600C200C2B0
:1001E00003740112022D90068E1202422220001585
:1001F00020030BBF010F1203DD200006D203120102
:10020000CC2212058922743012022D12027574302C
:1002100012022D743012022D743812022D740C1239
:10022000022D740612022D740112022D22C2A0802A
:1002300002D2A0F5B0C2A1D2A2120272C2A21202D0
:100240007522E4936006120231A380F62274C01274
:10025000022D78107420120231D8F974C012022DC8
:1002600022C000C001785079FFD9FED8FAD001D061
:100270000022000022C000C001780479FFD9FED816
:10028000FAD001D00022C000C001C0027A0878FF75
:1002900079FFD9FED8FADAF6D002D001D000227563
:1002A00090F0E59054F0B4F00374FF22120341750E
:1002B00090F0E59054F0B4F00374FF227590FEE5E1
:1002C0009030E44230E54230E64230E7547590FD2C
:1002D000E59030E43A30E53A30E63A30E74675905A
:1002E000FBE59030E43230E53230E63230E7387505
:1002F00090F7E59030E43630E50930E63330E72A10
:1003000074FF227400227401227402227403227486
:1003100004227405227406227407227408227409C8
:1003200022740A22740B22740C22740D22740E2281
:10033000740F227590F0E59054F0B4F0F61203417A
:1003400022781479FFD9FED8FA22F530BF0011E5E2
:1003500045B40800501BEB234530FB7A00054522CD
:10036000E546B40800500AED234530FD7C00054603
:1003700022754108020573F530BF001C8A318B32AB
:100380001203B44052E5322530F532E531340040F5
:1003900046F531AA31AB32228C318D321203B44092
:1003A00036E5322530F532E5313400402AF531ACFE
:1003B00031AD3222E53275F00AA4F53285F036E52A
:1003C0003175F00AA4F531E5F0700AE5312536F50E
:1003D000314002C322D322754104020573EE600E40
:1003E000B40A0050091475F003A49003EF732202BD
:1003F000040A0204370204660204D702054F02050C
:100400005502055B02056102054520020CEB2DFB40
:10041000EA3CFA500302056722ECC39A40117005CA
:10042000EDC39B400AC3ED9BFBEC9AFAC20222C3C8
:10043000EB9DFBEA9CFA22200220EAC39C4011704B
:1004400005EBC39D400AC3EB9DFBEA9CFAC2022266
:10045000C3ED9BFBEC9AFAD20222EB2DFBEA3CFAAD
:100460005003020567228B378A38753900753A00C8
:100470008D3F8C40753B00753C00753D00753E001E
:100480007810E53F54016019C3E53B2537F53BE59E
:100490003C3538F53CE53D3539F53DE53E353AF539
:1004A0003EC3E53733F537E53833F538E53933F50D
:1004B00039E53A33F53AC3E54013F540E53F13F526
:1004C0003FD8BFE53D453E6003020567AA3CAB3B14
:1004D000EA4B7002C20222EC4D700302056D8A31B4
:1004E0008B32753300753400753500753600781021
:1004F000C3E53233F532E53133F531E53633F536E0
:10050000E53533F5357542005003754201C3E534D6
:1005100033F534E53333F533E542700EE535C39CEE
:1005200040167006E536C39D400EC3E5369DF53690
:10053000E5359CF535433401D8B6AA33AB34EA4BE4
:100540007002C20222EAFCEBFDC20212046622EB38
:100550005DFB7A0022EB4DFB7A0022EB6DFB7A000B
:1005600022EBF4FB7A002275410102057375410309
:10057000020573D20022200010E544B402051205E2
:10058000BD80031205E6D2032212024DE541B401FB
:10059000059006D88023B403059006E7801BB404B9
:1005A000059006F68013B40705900707800BB40882
:1005B0000590071580039007251202422274C0128D
:1005C000022D78087420120231D8F98B307808E5B2
:1005D0003054806004743180027430120231E5308E
:1005E00023F530D8EA228A318B32E5314532701456
:1005F00074C012022D780F7420120231D8F97430B1
:100600001202312278001206442430C0E008E5319D
:10061000453270F28843E830020104F5F07410C3EB
:1006200095F0F974C012022DE960077420120231AE
:10063000D9F9300205742D120231A843D0E012021C
:1006400031D8F9227533007534007536007910C33E
:10065000E53233F532E53133F531E53633F536C37E
:10066000E53433F534E53333F533E536C3940A40E6
:1006700005F536433401D9D7853331853432E53633
:10068000222B2D2A2F267C58524541445900414E99
:10069000530053454C4543542033204D4F4445535C
:1006A00000313A415220323A4C4F4720333A4144CC
:1006B000440041524954484D45544943004C4F472A
:1006C00049433A20302F31204F4E4C590041444489
:1006D0004954494F4E414C004552524F523A4F56A1
:1006E0004552464C4F57004552524F523A44495694
:1006F000205A45524F004552524F523A494E50559A
:10070000542053495A45004552524F523A55534589
:1007100020302F31004552524F523A4D4158203827
:0B07200020424954004552524F520045
:00000001FF
