:1000000002000375815F7590FF75B000C2A0C2A1A8
:10001000C2A212027D12021812014F1202BBB4FFDB
:100020000302001BC0E012034FD0E0F530E544703E
:1000300008E53012018E02001B30010DC201E530CF
:10004000B40F0612016E02001BE530B40E08120157
:10005000D5D20102001BB40A00503BBF02030200CC
:100060001B3003031201DBE544B4020CE530B4029B
:100070000050171203668005E5301203932000102C
:10008000E530243012024302001B75410712058F30
:100090001205A802001BE530B40F06300369020008
:1000A0001BB40E005078E544B40305E530B40A6E85
:1000B0001201FF30000302001BE544B40115E530D6
:1000C000C39409FEE530C3940A9006A39312024339
:1000D000020121B4020FE530B40D197E08747E12BE
:1000E00002430201297E09745E1202437432120235
:1000F00043020129C39405FEE530C3940A9006A784
:1001000093120243020121120278743D120243202D
:1001100000067541001203F912059202001B02004D
:100120001B7F0112027302001B7F02120278020081
:100130001B7A007B007C007D007E007F0075410003
:10014000754500754600C200C201C202C203227595
:100150004400120131120278740112023F74C51278
:10016000023F9006AA1202541202A202016E7544C6
:1001700000120131120278740112023F9006B4128B
:10018000025474C012023F9006C412025422B401F9
:1001900005754401800EB402057544028006B4035F
:1001A000097544031201310201AB22740112023FAE
:1001B00074C012023FE544B401059006D5800BB42B
:1001C00002059006E080039006F01202547480123B
:1001D000023F0202731201310201AB0201D530036A
:1001E0001D7C007D007E007F00754100754600C2C9
:1001F00000C203740112023F9006B0120254222082
:10020000001520030BBF010F1203F9200006D203D3
:100210001201DE221205A822743012023F1202914E
:10022000743012023F743012023F743812023F746D
:100230000C12023F740612023F740112023F22C2E6
:10024000A08002D2A0F5B0C2A1D2A212028EC2A298
:1002500012029122E4936006120243A380F62274F4
:10026000C012023F78107420120243D8F974C012F1
:10027000023F22740F02023F740C02023FC000C012
:1002800001785079FFD9FED8FAD001D000220000C1
:1002900022C000C001780479FFD9FED8FAD001D07D
:1002A0000022C000C001C0027A0878FF79FFD9FEA1
:1002B000D8FADAF6D002D001D000227590F0E5909D
:1002C00054F0B4F00374FF2212035D7590F0E590D2
:1002D00054F0B4F00374FF227590FEE59030E442D0
:1002E00030E54230E64230E7547590FDE59030E469
:1002F0003A30E53A30E63A30E7467590FBE5903023
:10030000E43230E53230E63230E7387590F7E59088
:1003100030E43630E50930E63330E72A74FF2274E2
:1003200000227401227402227403227404227405D0
:1003300022740622740722740822740922740A2285
:10034000740B22740C22740D22740E22740F227509
:1003500090F0E59054F0B4F0F612035D2278147931
:10036000FFD9FED8FA22F530BF0011E545B40800E8
:10037000501BEB234530FB7A00054522E546B408C7
:1003800000500AED234530FD7C00054622754108EA
:1003900002058FF530BF001C8A318B321203D0402A
:1003A00052E5322530F532E53134004046F531AAC8
:1003B00031AB32228C318D321203D04036E53225FA
:1003C00030F532E5313400402AF531AC31AD32221E
:1003D000E53275F00AA4F53285F036E53175F00A9C
:1003E000A4F531E5F0700AE5312536F5314002C358
:1003F00022D32275410402058FEE600EB40A00502C
:10040000091475F003A490040B732202042602045D
:10041000530204820204F302056B020571020577A0
:1004200002057D02056120020CEB2DFBEA3CFA502F
:100430000302058322ECC39A40117005EDC39B4073
:100440000AC3ED9BFBEC9AFAC20222C3EB9DFBEAC6
:100450009CFA22200220EAC39C40117005EBC39D48
:10046000400AC3EB9DFBEA9CFAC20222C3ED9BFB50
:10047000EC9AFAD20222EB2DFBEA3CFA5003020579
:1004800083228B378A38753900753A008D3F8C404E
:10049000753B00753C00753D00753E007810E53FEA
:1004A00054016019C3E53B2537F53BE53C3538F58C
:1004B0003CE53D3539F53DE53E353AF53EC3E5379A
:1004C00033F537E53833F538E53933F539E53A337F
:1004D000F53AC3E54013F540E53F13F53FD8BFE5D6
:1004E0003D453E6003020583AA3CAB3BEA4B7002EC
:1004F000C20222EC4D70030205898A318B327533BA
:10050000007534007535007536007810C3E5323358
:10051000F532E53133F531E53633F536E53533F58A
:10052000357542005003754201C3E53433F534E5B7
:100530003333F533E542700EE535C39C4016700643
:10054000E536C39D400EC3E5369DF536E5359CF591
:1005500035433401D8B6AA33AB34EA4B7002C20239
:1005600022EAFCEBFDC20212048222EB5DFB7A0060
:1005700022EB4DFB7A0022EB6DFB7A0022EBF4FBC1
:100580007A002275410102058F75410302058FD261
:100590000022120278200010E544B402051205DFA3
:1005A0008003120608D2032212027812025FE5418C
:1005B000B401059006FB8023B4030590070A801B55
:1005C000B404059007198013B4070590072A800B1F
:1005D000B40805900738800390074812025422742B
:1005E000C012023F78087420120243D8F98B307889
:1005F00008E5305480600474318002743012024384
:10060000E53023F530D8EA228A318B32E5314532A4
:10061000701474C012023F780F7420120243D8F98C
:1006200074301202432278001206662430C0E008BB
:10063000E531453270F28843E830020104F5F07488
:1006400010C395F0F974C012023FE96007742012DC
:100650000243D9F9300205742D120243A843D0E0B9
:10066000120243D8F92275330075340075360079CB
:1006700010C3E53233F532E53133F531E53633F584
:1006800036C3E53433F534E53333F533E536C39417
:100690000A4005F536433401D9D7853331853432E4
:1006A000E536222B2D2A2F267C58524541445900ED
:1006B000414E53004D4F4445532053454C45435400
:1006C000494F4E00313A415220323A4C4F47203385
:1006D0003A4144440041524954484D45544943002D
:1006E0004C4F4749433A20302F31204F4E4C590050
:1006F0004144444954494F4E414C004552524F5297
:100700003A4F564552464C4F57004552524F523A77
:10071000444956205A45524F004552524F523A4989
:100720004E5055542053495A45004552524F523A63
:1007300055534520302F31004552524F523A4D41CA
:0E07400058203820424954004552524F520072
:00000001FF
