:1000000002000375815F7590FF75A0FFD2B0D2B179
:100010001201DE75440012014E12026FB4FF03029A
:100020000019C0E0120303D0E0F530E5447008E5A4
:100030003012017702001930010DC201E530B40F12
:100040000612016C020019E544B40218E530B4044C
:100050000874E81201F7020019B4060874E91201E5
:10006000F7020019E530B40E0812019FD201020018
:1000700019B40A005048BF020302001930030312EA
:1000800001A7E544B4020CE530B402005015120398
:100090001A8005E53012034720000EE5301201F703
:1000A000020019754107120543E541B404028003BB
:1000B000B40805E5301201F712020F020019E5300D
:1000C000B40F0630035C020019B40E0040030201B5
:1000D00041E544B4030AE530B40A02800302014159
:1000E0001201C5300003020019E544B4010EE530E9
:1000F000C39409FEEE24BF1201F78048B4020EE556
:1001000030B40D127E0874C71201F7803C7E09746A
:10011000C81201F78033C39405FEEE24BF1201F725
:10012000802274E71201F72000117541001203AD1F
:10013000200008120219D20302001912020F020055
:10014000190200197F010200197F020200197A00CA
:100150007B007C007D007E007F00754100754500BE
:10016000754600C200C201C202C2032275440012D9
:10017000014E74E50201F7B401087544017530E1E0
:100180008014B402087544027530E28009B4030E8D
:100190007544037530E312014EE5300201F7221277
:1001A000014E74E40201F702019F3003177C007DC9
:1001B000007E007F00754100754600C200C20374D6
:1001C000E61201F72220001520030BBF010F1203D6
:1001D000AD200006D2031201AA2212020F22538977
:1001E0000F43892053877F758DFD758BFD75985062
:1001F000C299C298D28E22F547C299F5993099FDDD
:10020000C2993098FDE599C298B406F6E547227484
:10021000D21201F7E5410201F7E544B4020974D1B5
:100220001201F7EB0201F7EEB4042EE53545366016
:100230002874D31201F77400300201041201F7EAA6
:100240001201F7EB1201F7E5351201F7E53612015D
:10025000F7EC1201F7ED0201F774D01201F7740008
:10026000300201041201F7EA1201F7EB0201F775FF
:1002700090F0E59054F0B4F00374FF22120311756E
:1002800090F0E59054F0B4F00374FF227590FEE511
:100290009030E44230E54230E64230E7547590FD5C
:1002A000E59030E43A30E53A30E63A30E74675908A
:1002B000FBE59030E43230E53230E63230E7387535
:1002C00090F7E59030E43630E50930E63330E72A40
:1002D00074FF2274002274012274022274032274B7
:1002E00004227405227406227407227408227409F9
:1002F00022740A22740B22740C22740D22740E22B2
:10030000740F227590F0E59054F0B4F0F6120311DA
:1003100022781479FFD9FED8FA22F530BF0011E512
:1003200045B40800501BEB234530FB7A00054522FD
:10033000E546B40800500AED234530FD7C00054633
:1003400022754108020543F530BF001C8A318B320B
:100350001203844052E5322530F532E53134004055
:1003600046F531AA31AB32228C318D3212038440F2
:1003700036E5322530F532E5313400402AF531AC2E
:1003800031AD3222E53275F00AA4F53285F036E55A
:100390003175F00AA4F531E5F0700AE5312536F53E
:1003A000314002C322D322754104020543EE600EA0
:1003B000B40A0050091475F003A49003BF7322021D
:1003C00003DA0204070204360204A702051F02052D
:1003D0002502052B02053102051520020CEB2DFB31
:1003E000EA3CFA500302053722ECC39A401170052B
:1003F000EDC39B400AC3ED9BFBEC9AFAC20222C3F9
:10040000EB9DFBEA9CFA22200220EAC39C4011707B
:1004100005EBC39D400AC3EB9DFBEA9CFAC2022296
:10042000C3ED9BFBEC9AFAD20222EB2DFBEA3CFADD
:100430005003020537228B378A38753900753A0028
:100440008D3F8C40753B00753C00753D00753E004E
:100450007810E53F54016019C3E53B2537F53BE5CE
:100460003C3538F53CE53D3539F53DE53E353AF569
:100470003EC3E53733F537E53833F538E53933F53D
:1004800039E53A33F53AC3E54013F540E53F13F556
:100490003FD8BFE53D453E6003020537AA3CAB3B74
:1004A000EA4B7002C20222EC4D700302053D8A3114
:1004B0008B32753300753400753500753600781051
:1004C000C3E53233F532E53133F531E53633F53610
:1004D000E53533F5357542005003754201C3E53407
:1004E00033F534E53333F533E542700EE535C39C1F
:1004F00040167006E536C39D400EC3E5369DF536C1
:10050000E5359CF535433401D8B6AA33AB34EA4B14
:100510007002C20222EAFCEBFDC20212043622EB98
:100520005DFB7A0022EB4DFB7A0022EB6DFB7A003B
:1005300022EBF4FB7A002275410102054375410369
:06054000020543D2002277
:00000001FF
