:1000000002000375815F7590FF75A0FFD2B0D2B179
:100010001201EB75440012015612027CB4FF030278
:100020000019C0E0120310D0E0F530E5447008E597
:100030003012018102001930010DC201E530B40F08
:1000400006120176020019E544B40218E530B40442
:100050000874E8120204020019B4060874E91202D6
:1000600004020019E530B40E081201A9D201020001
:1000700019B40A00504EE544B40207E530B402005A
:10008000502ABF02030200193003031201B1E544F4
:10009000B40207E5301203278005E530120354202F
:1000A000000DD204E530120204020019020019E525
:1000B00041B404028003B40805E5301202041202C0
:1000C0001C020019E530B40F0630035C020019B4BD
:1000D0000E004003020147E544B4030AE530B40AC8
:1000E0000280030201471201CF300003020019E52C
:1000F00044B4010EE530C39409FEEE24BF1202049D
:100100008048B4020EE530B40D127E0874C71202A6
:1001100004803E7E0974C81202048035C39405FE33
:10012000EE24BF120204802274E7120204200011A0
:100130007541001203BA200008120226D203020001
:100140001912021C0200190200197F01C2040200E8
:10015000197F020200197A007B007C007D007E007E
:100160007F00754100754500754600C200C201C29E
:1001700002C203C2042275440012015674E5020251
:1001800004B401087544017530E18014B4020875A7
:1001900044027530E28009B4030E7544037530E300
:1001A000120156E5300202042212015674E40202E2
:1001B000040201A93003177C007D007E007F0075DA
:1001C0004100754600C200C20374E61202042220F8
:1001D000001820030EBF011230040F1203BA2000D2
:1001E00006D2031201B42212021C2253890F438942
:1001F0002053877F758DFD758BFD759850C299C210
:1002000098D28E22F547C299F5993099FDC299305E
:1002100098FDE599C298B406F6E5472274D2120219
:1002200004E541020204E544B4020974D112020457
:10023000EB020204EEB4042EE5354536602874D393
:10024000120204740030020104120204EA120204D1
:10025000EB120204E535120204E536120204EC1238
:100260000204ED02020474D0120204740030020190
:1002700004120204EA120204EB0202047590F0E593
:100280009054F0B4F00374FF2212031E7590F0E551
:100290009054F0B4F00374FF227590FEE59030E4C2
:1002A0004230E54230E64230E7547590FDE590304B
:1002B000E43A30E53A30E63A30E7467590FBE590AF
:1002C00030E43230E53230E63230E7387590F7E529
:1002D0009030E43630E50930E63330E72A74FF2207
:1002E00074002274012274022274032274042274A2
:1002F0000522740622740722740822740922740AE3
:1003000022740B22740C22740D22740E22740F229C
:100310007590F0E59054F0B4F0F612031E227814B4
:1003200079FFD9FED8FA22F530BF0011E545B408AF
:1003300000501BEB234530FB7A00054522E546B40F
:100340000800500AED234530FD7C0005462275412A
:1003500008020550F530BF001C8A318B3212039120
:100360004052E5322530F532E53134004046F53172
:10037000AA31AB32228C318D321203914036E532F4
:100380002530F532E5313400402AF531AC31AD325B
:1003900022E53275F00AA4F53285F036E53175F0C4
:1003A0000AA4F531E5F0700AE5312536F531400251
:1003B000C322D322754104020550EE600EB40A0038
:1003C00050091475F003A49003CC73220203E702D2
:1003D00004140204430204B402052C02053202058F
:1003E0003802053E02052220020CEB2DFBEA3CFA06
:1003F000500302054422ECC39A40117005EDC39BE3
:10040000400AC3ED9BFBEC9AFAC20222C3EB9DFBB0
:10041000EA9CFA22200220EAC39C40117005EBC33B
:100420009D400AC3EB9DFBEA9CFAC20222C3ED9BEE
:10043000FBEC9AFAD20222EB2DFBEA3CFA500302C3
:100440000544228B378A38753900753A008D3F8C08
:1004500040753B00753C00753D00753E007810E529
:100460003F54016019C3E53B2537F53BE53C353882
:10047000F53CE53D3539F53DE53E353AF53EC3E51C
:100480003733F537E53833F538E53933F539E53ABB
:1004900033F53AC3E54013F540E53F13F53FD8BFC8
:1004A000E53D453E6003020544AA3CAB3BEA4B7088
:1004B00002C20222EC4D700302054A8A318B32756A
:1004C00033007534007535007536007810C3E53299
:1004D00033F532E53133F531E53633F536E535338D
:1004E000F5357542005003754201C3E53433F534E8
:1004F000E53333F533E542700EE535C39C401670A5
:1005000006E536C39D400EC3E5369DF536E5359CC0
:10051000F535433401D8B6AA33AB34EA4B7002C286
:100520000222EAFCEBFDC20212044322EB5DFB7ADD
:100530000022EB4DFB7A0022EB6DFB7A0022EBF4FC
:10054000FB7A0022754101020550754103020550F6
:03055000D20022B4
:00000001FF
