:1000000002000375815F7590FF1201B71201301273
:100010000246B4FF0302000FC0E01202DAD0E0B4DF
:100020000E05B20102000F300116B40408C201121D
:10003000020D02000FB40608C20112021302000FE3
:10004000B40A005024C201300307C0E0120163D09B
:10005000E0C0E01202F1D0E020000824301201DDFF
:1000600002000F12051402000FB40A2212019E3082
:10007000000302000F20010A7E01742B1201DD0231
:10008000012BC2017E0574261201DD02012BB40B87
:100090002212019E30000302000F20010A7E02742A
:1000A0002D1201DD02012BC2017E06747C1201DDDE
:1000B00002012BB40C2212019E30000302000F201B
:1000C000010A7E03742A1201DD02012BC2017E07A0
:1000D00074581201DD02012BB40D2712019E30006D
:1000E0000302000F20010A7E04742F1201DD0201B9
:1000F0002BC2017E08745E1201DD74321201DD0232
:10010000000FB40F2320011A30030302000F743DC7
:100110001201DD2000067541001203571205080286
:10012000000F12013002000F02000F7F0102000FCA
:100130007A007B007C007D007E007F00754100C25C
:1001400000C201C202C20374011201CC74C51201C3
:10015000CC9005C71201EE12022D1201F974801223
:1001600001CC227A007B007C007D007E007F007540
:100170004100C200C201C202C20374011201CC22BA
:1001800030031A7C007D007E007F00754100C200B4
:10019000C20374011201CC9005CD1201EE222000A1
:1001A0001520030BBF010F120357200006D20312C4
:1001B0000180221205142274381201CC740C120131
:1001C000CC74061201CC74011201CC22F5B0C2A08D
:1001D000C2A1D2A2120219C2A212021C22F5B0D2EE
:1001E000A0C2A1D2A2120219C2A212021C22E4933E
:1001F00060061201DDA380F62274C01201CC7810D3
:1002000074201201DDD8F974C01201CC22741812C6
:1002100001CC22741C1201CC22000022C000C001BB
:10022000780479FFD9FED8FAD001D00022C000C0EE
:1002300001C0027A0878FF79FFD9FED8FADAF6D041
:1002400002D001D000227590F0E59054F0B4F00394
:1002500074FF221202E87590F0E59054F0B4F003B8
:1002600074FF227590FEE59030E44230E54230E6BE
:100270004230E7547590FDE59030E43A30E53A308D
:10028000E63A30E7467590FBE59030E43230E532EF
:1002900030E63230E7387590F7E59030E43630E5F7
:1002A0000930E63330E72A74FF22740022740122F9
:1002B00074022274032274042274052274062274C8
:1002C0000722740822740922740A22740B22740C07
:1002D00022740D22740E22740F227590F0E5905452
:1002E000F0B4F0F61202E822781479FFD9FED8FAB9
:1002F00022F530BF001C8A318B3212032E4052E5AA
:10030000322530F532E53134004046F531AA31ABC3
:1003100032228C318D3212032E4036E5322530F5F3
:1003200032E5313400402AF531AC31AD3222E532CC
:1003300075F00AA4F53285F036E53175F00AA4F5BA
:1003400031E5F0700AE5312536F5314002C322D39C
:1003500022754104020505EEB4010412039122B492
:1003600002041203BE22B403041203ED22B40404F7
:1003700012045E22B405041204D822B40604120446
:10038000E122B407041204EA22B408041204CC22C5
:100390002220020CEB2DFBEA3CFA50030204F92266
:1003A000ECC39A40117005EDC39B400AC3ED9BFB63
:1003B000EC9AFAC20222C3EB9DFBEA9CFA222002CD
:1003C00020EAC39C40117005EBC39D400AC3EB9D1E
:1003D000FBEA9CFAC20222C3ED9BFBEC9AFAD20222
:1003E00022EB2DFBEA3CFA50030204F9228B378AF8
:1003F00038753900753A008D3F8C40753B00753C6F
:1004000000753D00753E007810E53F54016019C34A
:10041000E53B2537F53BE53C3538F53CE53D3539E1
:10042000F53DE53E353AF53EC3E53733F537E5387A
:1004300033F538E53933F539E53A33F53AC3E54074
:1004400013F540E53F13F53FD8BFE53D453E60035A
:100450000204F9AA3CAB3BEA4B7002C20222EC4D0B
:1004600070030204FF8A318B3275330075340075D6
:1004700035007536007810C3E53233F532E5313397
:10048000F531E53633F536E53533F535754200504F
:1004900003754201C3E53433F534E53333F533E511
:1004A00042700EE535C39C40167006E536C39D408C
:1004B0000EC3E5369DF536E5359CF535433401D858
:1004C000B6AA33AB34EA4B7002C20222EAFCEBFD5F
:1004D000C2021203EDC20122200218EB5DFB7A007A
:1004E0002220020FEB4DFB7A0022200206EB6DFB6F
:1004F0007A00227541060205057541010205057560
:100500004103020505D200222000091201F912055B
:1005100040D203221201F9E541B401059005D180D2
:100520001BB403059005E08013B404059005EF802B
:100530000BB4060590060080039006101201EE220F
:100540008A318B32E5314532700B74CF1201CC7495
:10055000301201DD22780012058A2430C0E008E55F
:1005600031453270F28843E830020104F5F074102E
:10057000C395F024C01201CC300205742D1201DDA8
:10058000A843D0E01201DDD8F9227533007534009C
:100590007536007910C3E53233F532E53133F53184
:1005A000E53633F536C3E53433F534E53333F53327
:1005B000E536C3940A4005F536433401D9D785336F
:1005C00031853432E53622524541445900414E537B
:1005D000004552524F523A4F564552464C4F5700E3
:1005E0004552524F523A444956205A45524F0045BF
:1005F00052524F523A494E5055542053495A450091
:100600004552524F523A4E4547204C4F47494300BE
:060610004552524F52005A
:00000001FF
