:1000000002000375815F759000D2B0D2B175A00077
:10001000753100C20012010B12032F1202CA120125
:100020003A120124F530B40A00500824301202F5C7
:10003000020021E530B4E00612013A020021B4E1E9
:1000400009753101120173020021B4E20975310210
:10005000120173020021B4E3097531031201730226
:100060000021B4E406120173020021B4E506120176
:1000700056020021B4E6061201A1020021B4E70BEA
:10008000743D1202F512032A020021B4D0061201B7
:10009000AF020021B4D10B120124F5331201FD028D
:1000A0000021B4D2091201241201C5020021E53059
:1000B000B4C0028026B4C1028021B4C202801CB444
:1000C000C3028017B4C4028012B4C502800DB4C646
:1000D000028008B4C7028003B4C82DE530B4C8104C
:1000E000745E1202F574321202F512032A02002124
:1000F000C394C090036D931202F5E530B4C70612A5
:10010000032A02002112032502002153890F43898B
:100110002053877F758DFD758BFD759850C299C2F0
:1001200098D28E223098FDE599C298F530C2997523
:1001300099063099FDC299E5302275310012032AE3
:1001400074011202F174C51202F1900375120306D4
:1001500012035402015675310012032A740112026F
:10016000F190037F12030674C01202F190038F1204
:10017000030622E53160DF74011202F174C012023D
:10018000F1E531B401059003A0800BB402059003A2
:10019000AB80039003BB12030674801202F10203CA
:1001A0002574011202F190037B120306020325124B
:1001B0000124C2006002D200120124F5321201248F
:1001C000F53302022AF53012032A120311E530B486
:1001D00001059003C68023B403059003D5801BB4AA
:1001E00004059003E48013B407059003F5800BB475
:1001F0000805900403800390041302030612032AE7
:1002000074C01202F1780874201202F5D8F985330F
:100210003A7808E53A5480600474318002743012F0
:1002200002F5E53A23F53AD8EA2212032A85323458
:10023000853335E5344535701474C01202F1780FFA
:1002400074201202F5D8F974301202F522780012E7
:10025000028D2430C0E008E534453570F28839E875
:1002600030000104F5F07410C395F0F974C0120267
:10027000F1E9600774201202F5D9F9300005742DF8
:100280001202F5A839D0E01202F5D8F9227536002D
:100290007537007538007910C3E53533F535E53429
:1002A00033F534E53833F538C3E53733F537E5361C
:1002B00033F536E538C3940A4005F538433701D99C
:1002C000D7853634853735E5382274301202F1127D
:1002D000034374301202F174301202F174381202C6
:1002E000F1740C1202F174061202F174011202F19F
:1002F00022C2A08002D2A0F590C2A1D2A2120340D5
:10030000C2A212034322E49360061202F5A380F610
:100310002274C01202F1781074201202F5D8F97418
:10032000C01202F122740F0202F1740C0202F1C039
:1003300000C001785079FFD9FED8FAD001D0002250
:10034000000022C000C001780479FFD9FED8FAD09D
:1003500001D00022C000C001C0027A0878FF79FFF6
:10036000D9FED8FADAF6D002D001D000222B2D2AFD
:100370002F267C587E524541445900414E53004D32
:100380004F4445532053454C454354494F4E00314B
:100390003A415220323A4C4F4720333A41444400CC
:1003A00041524954484D45544943004C4F474943F5
:1003B0003A20302F31204F4E4C590041444449548B
:1003C000494F4E414C004552524F523A4F564552BA
:1003D000464C4F57004552524F523A444956205AC4
:1003E00045524F004552524F523A494E50555420B3
:1003F00053495A45004552524F523A5553452030C1
:100400002F31004552524F523A4D41582038204228
:090410004954004552524F5200BC
:00000001FF
