:1000000002000375815F759000D2B0D2B175A00077
:10001000753100755400755580C200C201C202C21C
:10002000031201C61205DA12055A1205811201F5F2
:1000300020980E3001FA1206182098F41202568009
:10004000EF1201DFF530B40A00501F2430F530E51F
:1000500031B4020AC203E5301202D5020030C203F5
:10006000E53012059C0555020030E530B4E006127B
:1000700001F5020030B4E1097531011202350200C8
:1000800030B4E209753102120235020030B4E309DE
:10009000753103120235020030B4E4061202350253
:1000A0000030B4E506120211020030B4E606120276
:1000B000A1020030B4E71FC203743DF530E531B44E
:1000C0000207E5301202D58007E53012059C055580
:1000D0001205D3020030B4E806120309020030B45E
:1000E000E90612031C020030B4D00AC201C2031296
:1000F0000372020030B4D10FC201C2031201DFF556
:10010000331203E2020030B4D20DC201C203120165
:10011000DF1203B2020030B4D30AC201C2031203D9
:1001200088020030E530B4C0028026B4C1028021CC
:10013000B4C202801CB4C3028017B4C4028012B4DB
:10014000C502800DB4C6028008B4C7028003B4C8DB
:1001500072E530B4C816C203745E12059C74321284
:10016000059C055505551205D302003085303AC36C
:1001700094C090063193F530E53AB4C704C20380C9
:100180002130031CE531B40207E5301202F8802566
:100190001555E555120598E53012059C0555801555
:1001A000D203E531B40207E5301202D58007E5300D
:1001B00012059C0555E53AB4C7061205D302003076
:1001C0001205CC02003053890F43892053877F7575
:1001D0008DFD758BFD759850C299C298D28E2230D4
:1001E00098FDE599C298F530C2997599063099FD48
:1001F000C299E530227531001205D37401120598B9
:1002000074C51205989006391205AD1205FF020259
:1002100011753100C201C2031202CE1205D374015E
:100220001205989006431205AD74C0120598900609
:10023000531205AD22E53160D81202CE74011205C9
:1002400098755400755580C203D20112025674800D
:100250001205980205CC740C120598E531B401051D
:10026000900687800BB402059006A780039006C70E
:10027000E5822554F582E5833400F58374C01205C8
:10028000987810E49312059CA3D8F81554E55454BB
:100290000FF554E555120598300205740F120598B4
:1002A00022C2037401120598E531B402151202CE80
:1002B00074411202D5744E1202D574531202D50243
:1002C00005CC90063F1205AD7555830205CC7552DD
:1002D0000075530022F530E552B41201227840280F
:1002E000F8E530F60552E552C3941040066004F577
:1002F00053803C7553008037F530E552600A142472
:1003000040F8E530F612032F22E531B40220E55221
:10031000C39410401960177553008013E531B4027F
:100320000DE552C3941040066004F5538001227419
:10033000801205987840E55328F8E552C39553F9A3
:10034000B410028004400279108930E96007E61297
:10035000059C08D9F97410C39530F9E96007742039
:1003600012059CD9F9E530B41001142480F555022A
:1003700005981201DFC2006002D2001201DFF532DF
:100380001201DFF53302040F1201DFC2006002D256
:10039000001201DFF5321201DFF5331201DFF53B08
:1003A0001201DFF53C1201DFF53D1201DFF53E02DF
:1003B0000472F5301205D31205B8E530B40105908A
:1003C00006E7801BB403059006F68013B40405907D
:1003D0000705800BB40805900716800390072602D6
:1003E00005AD1205D374C012059878087420120563
:1003F0009CD8F985333A7808E53A54806004743122
:100400008002743012059CE53A23F53AD8EA2212AC
:1004100005D3853234853335E5344535701474C0E1
:10042000120598780F742012059CD8F974301205C3
:100430009C22780012051D2430C0E008E5344535C3
:1004400070F28839E830000104F5F07410C395F0BB
:10045000F974C0120598E96007742012059CD9F957
:10046000300005742D12059CA839D0E012059CD8E7
:10047000F9221205D38532348533351204E3F53F72
:10048000853B34853C351204E3253FF53F853D34FB
:10049000853E351204E3253F2402F53F3000020576
:1004A0003F7410C3953FF874C0120598E860077454
:1004B0002012059CD8F9300005742D12059C853258
:1004C000348533351204FA740012059C853B34855B
:1004D0003C351204FA740012059C853D34853E3586
:1004E0000204FAE5344535700374012278001205E0
:1004F0001D08E534453570F6E822E53445357005CC
:10050000743002059C780012051D2430C0E008E517
:1005100034453570F2D0E012059CD8F922753600CA
:100520007537007538007910C3E53533F535E53496
:1005300033F534E53833F538C3E53733F537E53689
:1005400033F536E538C3940A4005F538433701D909
:10055000D7853634853735E5382274301205981240
:1005600005EE74301205987430120598743812052F
:1005700098740C1205987406120598740112059867
:1005800022744012059890072C7808E49312059C79
:10059000A3D8F87480020598C2A08002D2A0F5907A
:1005A000C2A1D2A21205EBC2A21205EE22E4936010
:1005B0000612059CA380F62274C012059878107468
:1005C0002012059CD8F974C012059822D202740F2B
:1005D000020598C202740C020598C000C001785050
:1005E00079FFD9FED8FAD001D00022000022C00045
:1005F000C001780479FFD9FED8FAD001D00022C01A
:1006000000C001C0027A0878FF79FFD9FED8FADA73
:10061000F6D002D001D00022C000C001C0027A0290
:1006200078FF79FFD9FED8FADAF6D002D001D000EF
:10063000222B2D2A2F267C587E52454144590041B9
:100640004E53004D4F4445532053454C4543544968
:100650004F4E00313A415220323A4C4F4720333A04
:100660004144560041524954484D4554494300388D
:10067000626974204C4F47494300414456414E4300
:1006800045204D4F44450020202041524954484DBB
:100690004554494320202020202041524954484DB0
:1006A0004554494320202020202038626974204C82
:1006B0004F47494320202020202038626974204C75
:1006C0004F4749432020202020414456414E434576
:1006D000204D4F444520202020414456414E434563
:1006E000204D4F444520204552524F523A4F5645D7
:1006F00052464C4F57004552524F523A44495620A9
:100700005A45524F004552524F523A494E50555455
:100710002053495A45004552524F523A4D415820B4
:100720003820424954004552524F52000000000107
:04073000011F0000A5
:00000001FF
