:1000000002000375815F759000C2A0C2A1C2A275F3
:100010008920758DFD759850D28E12008812004C83
:100020007599BB3099FDC2993098FDAA99C2983054
:1000300098FDE599C298BA0005120073800312007A
:10004000777599AA3099FDC2990200287430120080
:100050007312009C74301200737430120073743881
:10006000120073740C120073740612007374011280
:10007000007322C2A08002D2A0F590C2A1D2A21227
:100080000099C2A212009C22C000C001785079FFE2
:10009000D9FED8FAD001D00022000022C000C00151
:0D00A000780479FFD9FED8FAD001D00022F3
:00000001FF
