:1000000002000375815F7590FF758920758DFD7500
:100010009850D28E3098FDE599C298B4BBF6120183
:10002000C7120290B4FF03020021C0E0120324D0E3
:10003000E0F530E5447008E5301202060200213098
:10004000010DC201E530B40F061201E6020021E500
:1000500030B40E0812024DD201020021B40A005041
:100060003BBF0203020021300303120253E544B4F4
:10007000020CE530B40200501712033B8005E53056
:10008000120368200010E5302430120147020021DD
:1000900075410712056412057D020021E530B40F99
:1000A00006300369020021B40E005078E544B40321
:1000B00005E530B40A6E120277300003020021E534
:1000C00044B40115E530C39409FEE530C3940A90A9
:1000D000067893120147020127B4020FE530B40DF0
:1000E000197E08747E12014702012F7E09745E1288
:1000F0000147743212014702012FC39405FEE53017
:10010000C3940A90067C9312014702012712018BC7
:10011000743D1201472000067541001203CE1205FE
:10012000670200210200217F011201860200217F67
:100130000212018B020021C0E07400120157D0E0CE
:1001400012015712015F22C0E07401120157D0E082
:1001500012015712015F22F5993099FDC2992230A0
:0E01600098FDE599C29822E4936006120147CB
:10016E00A380F62274C01201377810742012014752
:10017E00D8F974C012013722740F020137740C02C1
:10018E000137C000C001C0027A0878FF79FFD9FE9E
:10019E00D8FADAF6D002D001D000227A007B007CA9
:1001AE00007D007E007F007541007545007546009C
:1001BE00C200C201C202C203227544001201A9127A
:1001CE00018B740112013774C512013790067F122C
:1001DE0001671201900201E67544001201A9120195
:1001EE008B740112013790068912016774C01201D7
:1001FE003790069912016722B40105754401800EED
:10020E00B402057544028006B40309754403120155
:10021E00A902022322740112013774C0120137E5BC
:10022E0044B401059006AA800BB402059006B58071
:10023E00039006C5120167748012013702018612FF
:10024E0001A902022302024D30031D7C007D007EB7
:10025E00007F00754100754600C200C20374011292
:10026E0001379006851201672220001520030BBF6F
:10027E00010F1203CE200006D203120256221205DF
:10028E007D227590F0E59054F0B4F00374FF2212C5
:10029E0003327590F0E59054F0B4F00374FF2275BC
:1002AE0090FEE59030E44230E54230E64230E754CD
:1002BE007590FDE59030E43A30E53A30E63A30E7B5
:0F02CE00467590FBE59030E43230E53230E63291
:1002DD0030E7387590F7E59030E43630E50930E6D3
:1002ED003330E72A74FF2274002274012274022233
:1002FD007403227404227405227406227407227476
:10030D000822740922740A22740B22740C22740DB3
:10031D0022740E22740F227590F0E59054F0B4F013
:10032D00F612033222781479FFD9FED8FA22F5306D
:10033D00BF0011E545B40800501BEB234530FB7A97
:10034D0000054522E546B40800500AED234530FD71
:10035D007C00054622754108020564F530BF001C7E
:10036D008A318B321203A54052E5322530F532E544
:10037D003134004046F531AA31AB32228C318D3209
:10038D001203A54036E5322530F532E53134004013
:10039D002AF531AC31AD3222E53275F00AA4F532D1
:1003AD0085F036E53175F00AA4F531E5F0700AE512
:1003BD00312536F5314002C322D3227541040205A1
:1003CD0064EE600EB40A0050091475F003A4900396
:1003DD00E073220203FB0204280204570204C80240
:1003ED00054002054602054C020552020536200263
:0403FD000CEB2DFBDD
:10040100EA3CFA500302055822ECC39A40117005E8
:10041100EDC39B400AC3ED9BFBEC9AFAC20222C3D7
:10042100EB9DFBEA9CFA22200220EAC39C4011705A
:1004310005EBC39D400AC3EB9DFBEA9CFAC2022275
:10044100C3ED9BFBEC9AFAD20222EB2DFBEA3CFABC
:100451005003020558228B378A38753900753A00E6
:100461008D3F8C40753B00753C00753D00753E002D
:100471007810E53F54016019C3E53B2537F53BE5AD
:100481003C3538F53CE53D3539F53DE53E353AF548
:100491003EC3E53733F537E53833F538E53933F51C
:1004A10039E53A33F53AC3E54013F540E53F13F535
:1004B1003FD8BFE53D453E6003020558AA3CAB3B32
:1004C100EA4B7002C20222EC4D700302055E8A31D2
:1004D1008B32753300753400753500753600781030
:1004E100C3E53233F532E53133F531E53633F536EF
:0204F100E535EF
:1004F30033F5357542005003754201C3E53433F5D6
:1005030034E53333F533E542700EE535C39C4016CD
:100513007006E536C39D400EC3E5369DF536E535D9
:100523009CF535433401D8B6AA33AB34EA4B700299
:10053300C20222EAFCEBFDC20212045722EB5DFB6E
:100543007A0022EB4DFB7A0022EB6DFB7A0022EB63
:10055300F4FB7A002275410102056475410302052B
:1005630064D2002212018B200010E544B40205126C
:1005730005B480031205DDD2032212018B1201722E
:10058300E541B401059006D08023B403059006DF4E
:10059300801BB404059006EE8013B407059006FF94
:1005A300800BB4080590070D800390071D120167A7
:1005B3002274C012013778087420120147D8F98BCE
:1005C300307808E53054806004743180027430124E
:1005D3000147E53023F530D8EA228A318B32E53101
:1005E3004532701474C0120137780F74201201471A
:1005F300D8F9743012014722780012063B2430C028
:10060300E008E531453270F28843E830020104F531
:03061300F0741070
:10061600C395F0F974C0120137E96007742012011E
:1006260047D9F9300205742D120147A843D0E012CC
:100636000147D8F9227533007534007536007910F4
:10064600C3E53233F532E53133F531E53633F53688
:10065600C3E53433F534E53333F533E536C3940A6D
:100666004005F536433401D9D7853331853432E533
:1006760036222B2D2A2F267C5852454144590041BB
:100686004E53004D4F4445532053454C4543544922
:100696004F4E00313A415220323A4C4F4720333ABE
:1006A6004144440041524954484D45544943004C45
:1006B6004F4749433A20302F31204F4E4C59004185
:1006C60044444954494F4E414C004552524F523AC8
:1006D6004F564552464C4F57004552524F523A4498
:1006E6004956205A45524F004552524F523A494EAA
:1006F6005055542053495A45004552524F523A5587
:10070600534520302F31004552524F523A4D4158F1
:0D071600203820424954004552524F5200F5
:00000001FF
